:020000040000fa
:10000000f07f00207d0800006d0b00006f0b0000ea
:1000100000000000000000000000000000000000e0
:100020000000000000000000000000009f0a000027
:1000300000000000000000009f0a0000350a0000d8
:100040009f0a00009f0a00009f0a00009f0a00000c
:100050009f0a00009f0a0000000000009f0a0000a5
:100060009f0a0000490700009f0a00009f0a000045
:100070009f0a00009f0a00009f0a00009f0a0000dc
:100080009f0a00009f0a00009f0a00009f0a0000cc
:100090009f0a00009f0a00009f0a00009f0a0000bc
:1000a000000000009f0a00009f0a00009f0a000055
:020000040000fa
:1000b000f8b5c046f8bc08bc9e4670475d08000015
:1000c000f8b5c046f8bc08bc9e467047350800002d
:020000040000fa
:1000d000f0b5de4657464e464546e0b583b080460d
:1000e00000296ed00024384f0726384b9c469b468b
:1000f0009946009108e03648415549468a60621c9d
:100100000134009991424cd97a683240012a16d0c4
:100110009d68da6892466a1c19698a4289410a40d8
:1001200092453fd04146095d786830400128e2d1d0
:100130006d0027484155013500214155dde76246f4
:100140009568d26892466a1c614609698a4289416b
:100150000a40924526d0610001204044405c0002e4
:1001600082464046415c50460143019178683040e8
:10017000012809d0694609798a46154950464855eb
:1001800059468a60621cbbe7690068460079104dd9
:10019000aa4668540d0001350199090a5046415597
:1001a000eee7140000f07cfc002802d0064b012290
:1001b0009a75200003b03cbc90469946a246ab46d7
:1001c000f0bd0c00eee7c0460004004250010020e4
:0401d000800000208b
:020000040000fa
:1001d400374b0e225a6119000d3acb681a42fcd0f3
:1001e400334b00229a6101211961324b0820987126
:1001f4005971314b1a63314ada62180037310422db
:10020400435c1342fcd12c4a28230221d154100010
:1002140036310222435c1342fcd127483c2103229d
:10022400435c1340032bfbd1234b00221a83190098
:100234000132ff32cb681342fcd0214b1b689b0e6a
:100244009b028022920013431b4ad3611100920d3a
:10025400cb681342fcd0184b02221a831900d20136
:10026400cb681342fcd0174b174a5a621900082274
:100274004b681a42fcd1134b144a1a621900042227
:100284004b681a42fcd10f4ac8234021d1501000b8
:100294008831402243581a42fcd00a4acc234021d8
:1002a400d15010008c31402243581a42fcd0704780
:1002b4000010004000040040000c0040a0070200b1
:1002c40020608000001800400801020002010100c3
:020000040000fa
:1002d400f0b5d6464f464646c0b50426344da8462a
:1002e400a946334b9a465be04a46126a002a42d03a
:1002f400796a3b6a01209847bb6a01333a6b93429f
:100304009241134037e05246926a5200e0b22949c2
:1003140088540132240a8c543ce000f0cdfb244b79
:100324001b6a002bddd0224b596a3c23204ad35c44
:10033400002b06d0936b9842d3d3136a00209847be
:10034400cfe71b4b9b6b9842cbd1194b1b6a002008
:100354009847c6e7184b1b7e334223d0164b1c8d9f
:10036400a4b2ab6a01332a6b9342924113404246d2
:10037400d26a9a42b8d00e4ad26a9a42ead00e4a57
:10038400516807220a40012abdd0094a926ae4b2a0
:1003940008498c54064a93623423d35c002bbcd1a5
:1003a400034fd7e71cbc90469946a246f0bdc04611
:0c03b40050010020000000200004004266
:020000040000fa
:1003c000f0b5ce46474680b583b00125314ca046f6
:1003d000314a304eff23994616e058002f4f3f5cbc
:1003e000bc466f466146b97101302c49085cf87112
:1003f00001331ae06b4606331b8849460b401385d0
:10040000244b1b7d002b20d1137e2b423dd0a068b6
:10041000e368984236d05768072038400128dcd07e
:100420001e48c75c6846877101333069834280414a
:1004300003401848c360506807230340012bd9d1fb
:100440006b4606331b881385dae700f045fb114b3a
:100450001b68002bbcd0434659681b7f002b08d07b
:100460000c4b9b699842b3d30a4b1b6803209847f7
:10047000aee7084b9b699842aad1064b1b68032044
:100480009847a5e7044b01221a7503b00cbc9046af
:100490009946f0bd50010020000400428000002079
:020000040000fa
:1004a00070b5002000f066fa00211c4800f04afbfd
:1004b00000f01cfb0a2000f04bfb194b8022520578
:1004c0009a6100f04bfb174b18601c0001e000f034
:1004d0006bfa00f043fb2368c01a6328f7d9322077
:1004e00000f036fb104b114a1a821e2000f026fa4b
:1004f0000f4b104a1a62104c104d0ce001212000e5
:1005000000f01ef8287001212000fff7e1fd00f047
:10051000d5fa0028f2d100f047faf8e7290b0000dd
:1005200000280040c8010020000c004042100000dc
:100530000018004000010100ac010020dc01002097
:020000040000fa
:10054000f0b5d6464f464646c0b582461e4ad36ae7
:10055000956a002933d0ab4234d0040001201b4af5
:1005600094469046184e12e04246d25c914652465e
:10057000013a4f4617540133326b93429241134074
:10058000884214d2421c0234ab4211d01000104aef
:10059000576807223a40012ae6d15a006746bf5cf5
:1005a000277001326746ba5c62700133e4e71d00d0
:1005b000054bdd621cbc90469946a246f0bd1d006d
:1005c0000800f5e70020f3e75001002000000020bc
:0405d00000040042e1
:020000040000fa
:1005d400900100201c00000000000000000000202a
:1005e4000001000000000000500100204000000055
:1005f40000000000bc01002010000000000000000a
:10060400ac0100201000000000000000dc0100200c
:100614000100000000000000cc01002008000000e0
:1006240000000000e00100200400000001000000c0
:1006340032000000d401002004000000000000008b
:10064400000100205000000000000000d80100203c
:100654000400000000000000000000000000000092
:020000040000fa
:100664001d4b1e4a1a601e4a9a81c02292025a6089
:100674001a00d369002bfcd1174a136802210b43db
:100684001360d369002bfcd1164b00221a629a62c4
:10069400da6234215a5408315a549a630021da87b1
:1006a4001a609a60da60197519779a610a4b5a6868
:1006b40007231340012b09d00a4b80221a631a61c5
:1006c400054b80229a757c3a9a757047054b4022f7
:1006d4001a631a61f4e7c0460004004204011240a0
:0806e40041f1ffff500100206d
:020000040000fa
:1006ec0000230e4a10b513600d4a13600d4a1360b7
:1006fc000d4a13600d4a13600d4a536213610133a6
:10070c00936000f02ffa00f02dfa0a4c0a4b9c4231
:10071c0000d310bd08cc9847f8e7c046d80100209c
:10072c000c01002008010020000100200401002021
:0c073c0010010020bc000000c000000004
:020000040000fa
:1007480010b5134b9b7d002b1ad0114a137edbb2d8
:10075800927d52b2002a14db0d4a137edbb2927de1
:10076800d20703d5db0701d5fff726fe084a137e1b
:10077800dbb2927d520703d55b0701d5fff7a6fdd3
:1007880010bd5bb2002be7da00f004f8e4e7c046de
:040798000004004217
:020000040000fa
:10079c0010b5104b5b8b0722134000d110bd0e4ad5
:1007ac00d3870c4b80221a76793a5a831b7e5b07cf
:1007bc0005d5084b04211a8d1a7e0a42fbd1064b33
:1007cc001b6a002bead0044b596a1b6a022098471b
:0c07dc00e4e7c046000400425001002089
:020000040000fa
:1007e80010b50e4b0e4a934207d30e4801680029f4
:1007f80007d14368002b04d110bd002119700133c3
:10080800f1e704008368084a9bb20c349b009b58ac
:1008180042682000984780002018e7e70000002081
:0c08280000000020d4050000000b0000c0
:020000040000fa
:1008340010b5064c2378002b07d1054b002b02d0b2
:10084400044800e000bf0123237010bd9001002084
:100854000000000000000000044b10b5002b03d082
:100864000349044800e000bf10bdc046000000007a
:080874009401002000000000c7
:020000040000fa
:10087c0010b50a4b98470a4b9847fff7afff094b47
:10088c00ff229343084a9360084b9847084b9847bc
:10089c00084b9847fff7fefdfee7c046270b00000c
:1008ac00270b00000000000000ed00e0ed0600004a
:0808bc00270b0000270b0000d0
:020000040000fa
:1008c4000d4b0e4a1a60012244215a540c315a54d9
:1008d40001315a5452321139995400221c315a545c
:1008e4002a390320585406311f30585401315a54c0
:1008f40005315a547047c0460028004000000810d3
:020000040000fa
:100904008423db050a4a1a600a4a9a81c0229202a9
:100914005a601a00d369002bfcd18422d2051368d3
:1009240002210b431360d369002bfcd17047c046ee
:080934000401124041f1ffff34
:020000040000fa
:10093c0070b50c4b5e681b68db0712d54001094b88
:10094c009b680ed00021074d06e0741ca41ae31816
:10095c00c9181300884204d9aa689a42f5d89b1a80
:08096c00f6e770bd10e000e0a9
:020000040000fa
:1009740010b50b4b06225a6000f02cf8fff7a0ffcd
:10098400fff726fc00f0d6f8fff76afefff7b8ff82
:1009940000f037f800f060f800f034f810bdc046fd
:0409a40000400041ce
:020000040000fa
:1009a800074b1a68074b1b68d31a074909688b421b
:1009b80005d3044b1a60054b80221203da61704795
:1009c800d0010020cc010020e001002000280040d8
:020000040000fa
:1009d8008023db0500221a819a7901210a439a7142
:1009e8009b7803221340022b08d08023db05013ab1
:0e09f8009a701900013a8b791342fcd07047b7
:020000040000fa
:020a0600704737
:020000040000fa
:100a0800bff35f8f62b6074bc22080001a580649b1
:100a18001140c02212020a431a50802292001a6022
:0c0a28007047c04600e100e0ff00ffff47
:020000040000fa
:100a340010b5074b5868074a12689a6801329a60e1
:100a44001b68002b02d0024b1b68984710bdc046a0
:080a5400bc01002010e000e0ed
:020000040000fa
:100a5c00054a00231360936004495160062111601c
:100a6c00034a93601360704710e000e0ffe104005c
:040a7c00bc01002099
:020000040000fa
:100a8000002310b5934206d103201840421e904126
:0e0a90009b08c01810bdc45ccc540133f2e7c3
:020000040000fa
:020a9e00fee771
:020000040000fa
:100aa000054b9868db68984201d3c01a7047024a28
:0c0ab00012691018c01af9e7500100206c
:020000040000fa
:100abc00054ad36a906a834201d8c01a7047024a29
:0c0acc00126b1018c01af9e7500100204e
:020000040000fa
:100ad80010b5034b1c69fff7dfff013c201a10bd5e
:040ae8005001002099
:020000040000fa
:100aec00034b00229a601a6801210a431a6070476e
:040afc0010e000e026
:020000040000fa
:100b0000150b0000810a0000690b0000690b000052
:040b1000690b00006d
:020000040000fa
:100b14008a18914201d10020704700230b700131e3
:020b2400f7e7f1
:020000040000fa
:020b2600704716
:020000040000fa
:100b2800024a1368013313607047c046d0010020a1
:020000040000fa
:0c0b3800014b82225a60704700400041cf
:020000040000fa
:0c0b4400014b186059607047bc01002094
:020000040000fa
:0c0b5000014b18607047c046e001002017
:020000040000fa
:0c0b5c00014b18687047c046d001002013
:020000040000fa
:040b680000207047b2
:020000040000fa
:020b6c00fee7a2
:020000040000fa
:020b6e00fee7a0
:020000040000fa
:020b70007047cc
:020000040000fa
:0200000400807a
:04400000770600b08f
:020000040000fa
:0200000400807a
:04400400bb00ffffff
:00000001FF
